{
  "_format": "hh-sol-artifact-1",
  "contractName": "OrderBook",
  "sourceName": "contracts/OrderBook.sol",
  "abi": [
    {
      "inputs": [
        {
          "internalType": "address",
          "name": "_registry",
          "type": "address"
        }
      ],
      "stateMutability": "nonpayable",
      "type": "constructor"
    },
    {
      "inputs": [],
      "name": "ECDSAInvalidSignature",
      "type": "error"
    },
    {
      "inputs": [
        {
          "internalType": "uint256",
          "name": "length",
          "type": "uint256"
        }
      ],
      "name": "ECDSAInvalidSignatureLength",
      "type": "error"
    },
    {
      "inputs": [
        {
          "internalType": "bytes32",
          "name": "s",
          "type": "bytes32"
        }
      ],
      "name": "ECDSAInvalidSignatureS",
      "type": "error"
    },
    {
      "inputs": [],
      "name": "EnforcedPause",
      "type": "error"
    },
    {
      "inputs": [],
      "name": "ExpectedPause",
      "type": "error"
    },
    {
      "inputs": [],
      "name": "InvalidShortString",
      "type": "error"
    },
    {
      "inputs": [
        {
          "internalType": "address",
          "name": "owner",
          "type": "address"
        }
      ],
      "name": "OwnableInvalidOwner",
      "type": "error"
    },
    {
      "inputs": [
        {
          "internalType": "address",
          "name": "account",
          "type": "address"
        }
      ],
      "name": "OwnableUnauthorizedAccount",
      "type": "error"
    },
    {
      "inputs": [],
      "name": "ReentrancyGuardReentrantCall",
      "type": "error"
    },
    {
      "inputs": [
        {
          "internalType": "string",
          "name": "str",
          "type": "string"
        }
      ],
      "name": "StringTooLong",
      "type": "error"
    },
    {
      "anonymous": false,
      "inputs": [],
      "name": "EIP712DomainChanged",
      "type": "event"
    },
    {
      "anonymous": false,
      "inputs": [
        {
          "indexed": true,
          "internalType": "bytes32",
          "name": "orderId",
          "type": "bytes32"
        }
      ],
      "name": "OrderCancelled",
      "type": "event"
    },
    {
      "anonymous": false,
      "inputs": [
        {
          "indexed": true,
          "internalType": "bytes32",
          "name": "orderId",
          "type": "bytes32"
        },
        {
          "indexed": false,
          "internalType": "uint256",
          "name": "filledQty",
          "type": "uint256"
        },
        {
          "indexed": false,
          "internalType": "uint256",
          "name": "price",
          "type": "uint256"
        }
      ],
      "name": "OrderFilled",
      "type": "event"
    },
    {
      "anonymous": false,
      "inputs": [
        {
          "indexed": true,
          "internalType": "bytes32",
          "name": "orderId",
          "type": "bytes32"
        },
        {
          "indexed": true,
          "internalType": "address",
          "name": "trader",
          "type": "address"
        },
        {
          "indexed": true,
          "internalType": "bytes32",
          "name": "pairId",
          "type": "bytes32"
        },
        {
          "indexed": false,
          "internalType": "enum OrderBook.OrderSide",
          "name": "side",
          "type": "uint8"
        },
        {
          "indexed": false,
          "internalType": "uint256",
          "name": "price",
          "type": "uint256"
        },
        {
          "indexed": false,
          "internalType": "uint256",
          "name": "quantity",
          "type": "uint256"
        }
      ],
      "name": "OrderPlaced",
      "type": "event"
    },
    {
      "anonymous": false,
      "inputs": [
        {
          "indexed": true,
          "internalType": "address",
          "name": "previousOwner",
          "type": "address"
        },
        {
          "indexed": true,
          "internalType": "address",
          "name": "newOwner",
          "type": "address"
        }
      ],
      "name": "OwnershipTransferred",
      "type": "event"
    },
    {
      "anonymous": false,
      "inputs": [
        {
          "indexed": false,
          "internalType": "address",
          "name": "account",
          "type": "address"
        }
      ],
      "name": "Paused",
      "type": "event"
    },
    {
      "anonymous": false,
      "inputs": [
        {
          "indexed": true,
          "internalType": "bytes32",
          "name": "buyOrderId",
          "type": "bytes32"
        },
        {
          "indexed": true,
          "internalType": "bytes32",
          "name": "sellOrderId",
          "type": "bytes32"
        },
        {
          "indexed": false,
          "internalType": "uint256",
          "name": "price",
          "type": "uint256"
        },
        {
          "indexed": false,
          "internalType": "uint256",
          "name": "quantity",
          "type": "uint256"
        }
      ],
      "name": "TradeExecuted",
      "type": "event"
    },
    {
      "anonymous": false,
      "inputs": [
        {
          "indexed": false,
          "internalType": "address",
          "name": "account",
          "type": "address"
        }
      ],
      "name": "Unpaused",
      "type": "event"
    },
    {
      "inputs": [
        {
          "internalType": "bytes32",
          "name": "",
          "type": "bytes32"
        },
        {
          "internalType": "uint256",
          "name": "",
          "type": "uint256"
        }
      ],
      "name": "askOrderIds",
      "outputs": [
        {
          "internalType": "bytes32",
          "name": "",
          "type": "bytes32"
        }
      ],
      "stateMutability": "view",
      "type": "function"
    },
    {
      "inputs": [
        {
          "internalType": "bytes32",
          "name": "",
          "type": "bytes32"
        },
        {
          "internalType": "uint256",
          "name": "",
          "type": "uint256"
        }
      ],
      "name": "bidOrderIds",
      "outputs": [
        {
          "internalType": "bytes32",
          "name": "",
          "type": "bytes32"
        }
      ],
      "stateMutability": "view",
      "type": "function"
    },
    {
      "inputs": [
        {
          "internalType": "bytes32",
          "name": "orderId",
          "type": "bytes32"
        }
      ],
      "name": "cancelOrder",
      "outputs": [],
      "stateMutability": "nonpayable",
      "type": "function"
    },
    {
      "inputs": [
        {
          "internalType": "bytes32",
          "name": "orderId",
          "type": "bytes32"
        },
        {
          "internalType": "uint256",
          "name": "deadline",
          "type": "uint256"
        },
        {
          "internalType": "bytes",
          "name": "signature",
          "type": "bytes"
        }
      ],
      "name": "cancelOrderBySig",
      "outputs": [],
      "stateMutability": "nonpayable",
      "type": "function"
    },
    {
      "inputs": [],
      "name": "eip712Domain",
      "outputs": [
        {
          "internalType": "bytes1",
          "name": "fields",
          "type": "bytes1"
        },
        {
          "internalType": "string",
          "name": "name",
          "type": "string"
        },
        {
          "internalType": "string",
          "name": "version",
          "type": "string"
        },
        {
          "internalType": "uint256",
          "name": "chainId",
          "type": "uint256"
        },
        {
          "internalType": "address",
          "name": "verifyingContract",
          "type": "address"
        },
        {
          "internalType": "bytes32",
          "name": "salt",
          "type": "bytes32"
        },
        {
          "internalType": "uint256[]",
          "name": "extensions",
          "type": "uint256[]"
        }
      ],
      "stateMutability": "view",
      "type": "function"
    },
    {
      "inputs": [
        {
          "internalType": "bytes32",
          "name": "pairId",
          "type": "bytes32"
        }
      ],
      "name": "getBestAsk",
      "outputs": [
        {
          "internalType": "uint256",
          "name": "price",
          "type": "uint256"
        },
        {
          "internalType": "uint256",
          "name": "quantity",
          "type": "uint256"
        }
      ],
      "stateMutability": "view",
      "type": "function"
    },
    {
      "inputs": [
        {
          "internalType": "bytes32",
          "name": "pairId",
          "type": "bytes32"
        }
      ],
      "name": "getBestBid",
      "outputs": [
        {
          "internalType": "uint256",
          "name": "price",
          "type": "uint256"
        },
        {
          "internalType": "uint256",
          "name": "quantity",
          "type": "uint256"
        }
      ],
      "stateMutability": "view",
      "type": "function"
    },
    {
      "inputs": [],
      "name": "getDomainSeparator",
      "outputs": [
        {
          "internalType": "bytes32",
          "name": "",
          "type": "bytes32"
        }
      ],
      "stateMutability": "view",
      "type": "function"
    },
    {
      "inputs": [
        {
          "internalType": "bytes32",
          "name": "orderId",
          "type": "bytes32"
        }
      ],
      "name": "getOrder",
      "outputs": [
        {
          "components": [
            {
              "internalType": "bytes32",
              "name": "id",
              "type": "bytes32"
            },
            {
              "internalType": "address",
              "name": "trader",
              "type": "address"
            },
            {
              "internalType": "bytes32",
              "name": "pairId",
              "type": "bytes32"
            },
            {
              "internalType": "enum OrderBook.OrderSide",
              "name": "side",
              "type": "uint8"
            },
            {
              "internalType": "enum OrderBook.OrderType",
              "name": "orderType",
              "type": "uint8"
            },
            {
              "internalType": "uint256",
              "name": "price",
              "type": "uint256"
            },
            {
              "internalType": "uint256",
              "name": "quantity",
              "type": "uint256"
            },
            {
              "internalType": "uint256",
              "name": "filled",
              "type": "uint256"
            },
            {
              "internalType": "enum OrderBook.OrderStatus",
              "name": "status",
              "type": "uint8"
            },
            {
              "internalType": "uint256",
              "name": "timestamp",
              "type": "uint256"
            },
            {
              "internalType": "uint256",
              "name": "nonce",
              "type": "uint256"
            },
            {
              "internalType": "uint256",
              "name": "expiry",
              "type": "uint256"
            }
          ],
          "internalType": "struct OrderBook.Order",
          "name": "",
          "type": "tuple"
        }
      ],
      "stateMutability": "view",
      "type": "function"
    },
    {
      "inputs": [
        {
          "internalType": "address",
          "name": "trader",
          "type": "address"
        }
      ],
      "name": "getTraderOrders",
      "outputs": [
        {
          "internalType": "bytes32[]",
          "name": "",
          "type": "bytes32[]"
        }
      ],
      "stateMutability": "view",
      "type": "function"
    },
    {
      "inputs": [
        {
          "internalType": "bytes32",
          "name": "pairId",
          "type": "bytes32"
        }
      ],
      "name": "matchOrder",
      "outputs": [],
      "stateMutability": "nonpayable",
      "type": "function"
    },
    {
      "inputs": [
        {
          "internalType": "address",
          "name": "",
          "type": "address"
        }
      ],
      "name": "nonces",
      "outputs": [
        {
          "internalType": "uint256",
          "name": "",
          "type": "uint256"
        }
      ],
      "stateMutability": "view",
      "type": "function"
    },
    {
      "inputs": [
        {
          "internalType": "bytes32",
          "name": "",
          "type": "bytes32"
        }
      ],
      "name": "orders",
      "outputs": [
        {
          "internalType": "bytes32",
          "name": "id",
          "type": "bytes32"
        },
        {
          "internalType": "address",
          "name": "trader",
          "type": "address"
        },
        {
          "internalType": "bytes32",
          "name": "pairId",
          "type": "bytes32"
        },
        {
          "internalType": "enum OrderBook.OrderSide",
          "name": "side",
          "type": "uint8"
        },
        {
          "internalType": "enum OrderBook.OrderType",
          "name": "orderType",
          "type": "uint8"
        },
        {
          "internalType": "uint256",
          "name": "price",
          "type": "uint256"
        },
        {
          "internalType": "uint256",
          "name": "quantity",
          "type": "uint256"
        },
        {
          "internalType": "uint256",
          "name": "filled",
          "type": "uint256"
        },
        {
          "internalType": "enum OrderBook.OrderStatus",
          "name": "status",
          "type": "uint8"
        },
        {
          "internalType": "uint256",
          "name": "timestamp",
          "type": "uint256"
        },
        {
          "internalType": "uint256",
          "name": "nonce",
          "type": "uint256"
        },
        {
          "internalType": "uint256",
          "name": "expiry",
          "type": "uint256"
        }
      ],
      "stateMutability": "view",
      "type": "function"
    },
    {
      "inputs": [],
      "name": "owner",
      "outputs": [
        {
          "internalType": "address",
          "name": "",
          "type": "address"
        }
      ],
      "stateMutability": "view",
      "type": "function"
    },
    {
      "inputs": [],
      "name": "pause",
      "outputs": [],
      "stateMutability": "nonpayable",
      "type": "function"
    },
    {
      "inputs": [],
      "name": "paused",
      "outputs": [
        {
          "internalType": "bool",
          "name": "",
          "type": "bool"
        }
      ],
      "stateMutability": "view",
      "type": "function"
    },
    {
      "inputs": [
        {
          "internalType": "bytes32",
          "name": "pairId",
          "type": "bytes32"
        },
        {
          "internalType": "enum OrderBook.OrderSide",
          "name": "side",
          "type": "uint8"
        },
        {
          "internalType": "enum OrderBook.OrderType",
          "name": "orderType",
          "type": "uint8"
        },
        {
          "internalType": "uint256",
          "name": "price",
          "type": "uint256"
        },
        {
          "internalType": "uint256",
          "name": "quantity",
          "type": "uint256"
        },
        {
          "internalType": "uint256",
          "name": "expiry",
          "type": "uint256"
        }
      ],
      "name": "placeOrder",
      "outputs": [
        {
          "internalType": "bytes32",
          "name": "orderId",
          "type": "bytes32"
        }
      ],
      "stateMutability": "nonpayable",
      "type": "function"
    },
    {
      "inputs": [
        {
          "internalType": "address",
          "name": "trader",
          "type": "address"
        },
        {
          "internalType": "bytes32",
          "name": "pairId",
          "type": "bytes32"
        },
        {
          "internalType": "enum OrderBook.OrderSide",
          "name": "side",
          "type": "uint8"
        },
        {
          "internalType": "enum OrderBook.OrderType",
          "name": "orderType",
          "type": "uint8"
        },
        {
          "internalType": "uint256",
          "name": "price",
          "type": "uint256"
        },
        {
          "internalType": "uint256",
          "name": "quantity",
          "type": "uint256"
        },
        {
          "internalType": "uint256",
          "name": "expiry",
          "type": "uint256"
        },
        {
          "internalType": "bytes",
          "name": "signature",
          "type": "bytes"
        }
      ],
      "name": "placeOrderBySig",
      "outputs": [
        {
          "internalType": "bytes32",
          "name": "orderId",
          "type": "bytes32"
        }
      ],
      "stateMutability": "nonpayable",
      "type": "function"
    },
    {
      "inputs": [],
      "name": "registry",
      "outputs": [
        {
          "internalType": "contract TokenRegistry",
          "name": "",
          "type": "address"
        }
      ],
      "stateMutability": "view",
      "type": "function"
    },
    {
      "inputs": [],
      "name": "renounceOwnership",
      "outputs": [],
      "stateMutability": "nonpayable",
      "type": "function"
    },
    {
      "inputs": [
        {
          "internalType": "address",
          "name": "",
          "type": "address"
        },
        {
          "internalType": "uint256",
          "name": "",
          "type": "uint256"
        }
      ],
      "name": "traderOrders",
      "outputs": [
        {
          "internalType": "bytes32",
          "name": "",
          "type": "bytes32"
        }
      ],
      "stateMutability": "view",
      "type": "function"
    },
    {
      "inputs": [
        {
          "internalType": "address",
          "name": "newOwner",
          "type": "address"
        }
      ],
      "name": "transferOwnership",
      "outputs": [],
      "stateMutability": "nonpayable",
      "type": "function"
    },
    {
      "inputs": [],
      "name": "unpause",
      "outputs": [],
      "stateMutability": "nonpayable",
      "type": "function"
    }
  ],
  "bytecode": "0x610180346200023057601f6200263c38819003918201601f19168301926001600160401b0392909183851183861017620002055781602092849260409788528339810103126200023057516001600160a01b038082169182900362000230578351906200006c8262000234565b601182526020820190705a655468657461204f72646572426f6f6b60781b82528551906200009a8262000234565b600182526020820190603160f81b825260017f9b779b17422d0df92223018b32b4d1fa46e071723d6817e2486d003becc55f0055331562000219575f8054336001600160a01b03198216811783559216907f8be0079c531659141344cd1fd0a4f28419497f9722a3daafe3b4186f6b6457e09080a36200011a8462000250565b926101209384526200012c8362000419565b94610140958652519020918260e052519020610100968188524660a05280519160208301937f8b73c3c69bb8fe3d512ecc4cf759cc79239f7b179b0ffacaa9a75d522b39400f85528284015260608301524660808301523060a083015260a0825260c08201968288109088111762000205578690525190206080523060c0526101609283526120759485620005c7863960805185611b45015260a05185611c11015260c05185611b0f015260e05185611b9401525184611bba015251836104550152518261047f01525181818161065501526112a50152f35b634e487b7160e01b5f52604160045260245ffd5b8751631e4fbdf760e01b81525f6004820152602490fd5b5f80fd5b604081019081106001600160401b038211176200020557604052565b805160209081811015620002ea5750601f8251116200028b57808251920151908083106200027d57501790565b825f19910360031b1b161790565b90604051809263305a27a960e01b82528060048301528251908160248401525f935b828510620002d0575050604492505f838284010152601f80199101168101030190fd5b8481018201518686016044015293810193859350620002ad565b9192916001600160401b038111620002055760019182548381811c911680156200040e575b82821014620003fa57601f8111620003c4575b5080601f8311600114620003605750819293945f9262000354575b50505f19600383901b1c191690821b17905560ff90565b015190505f806200033d565b90601f19831695845f52825f20925f905b888210620003ac575050838596971062000393575b505050811b01905560ff90565b01515f1960f88460031b161c191690555f808062000386565b80878596829496860151815501950193019062000371565b835f5283601f835f20920160051c820191601f850160051c015b828110620003ee57505062000322565b5f8155018490620003de565b634e487b7160e01b5f52602260045260245ffd5b90607f16906200030f565b805160209081811015620004a55750601f8251116200044657808251920151908083106200027d57501790565b90604051809263305a27a960e01b82528060048301528251908160248401525f935b8285106200048b575050604492505f838284010152601f80199101168101030190fd5b848101820151868601604401529381019385935062000468565b906001600160401b0382116200020557600254926001938481811c91168015620005bb575b83821014620003fa57601f811162000584575b5081601f84116001146200051c57509282939183925f9462000510575b50501b915f199060031b1c19161760025560ff90565b015192505f80620004fa565b919083601f19811660025f52845f20945f905b8883831062000569575050501062000550575b505050811b0160025560ff90565b01515f1960f88460031b161c191690555f808062000542565b8587015188559096019594850194879350908101906200052f565b60025f5284601f845f20920160051c820191601f860160051c015b828110620005af575050620004dd565b5f81550185906200059f565b90607f1690620004ca56fe6080604052600480361015610012575f80fd5b5f3560e01c80630d114fb614610c4c578063111d7e9714610ab0578063354dafdc14610a715780633f4ba83a14610a025780635269bd3b146109d35780635778472a1461080e5780635c975abb146107ea5780636a7cf845146107cc578063715018a6146107755780637489ec23146106845780637b103999146106405780637ecebe00146106085780638058bfa8146105bf5780638456cb591461055f57806384b0196e1461043f5780638da5cb5b146104185780639c3f1e9014610345578063b6507c2d146102d7578063ce3ca00b14610229578063d50d458f146101ff578063df410ecc146101c2578063ed24911d146101a05763f2fde38b14610117575f80fd5b3461019c57602036600319011261019c57610130610e12565b610138611a99565b6001600160a01b0390811691821561018557505f54826001600160601b0360a01b8216175f55167f8be0079c531659141344cd1fd0a4f28419497f9722a3daafe3b4186f6b6457e05f80a3005b6024905f60405191631e4fbdf760e01b8352820152fd5b5f80fd5b3461019c575f36600319011261019c5760206101ba611b0c565b604051908152f35b503461019c576101d136610e56565b91905f5260205260405f20805482101561019c576020916101f191610e92565b90546040519160031b1c8152f35b503461019c57602036600319011261019c5761021d60409135611138565b82519182526020820152f35b3461019c5760208060031936011261019c576001600160a01b0361024b610e12565b165f526006815260405f20604051908183825491828152019081925f52845f20905f5b868282106102c357868661028482880383610f76565b60405192839281840190828552518091526040840192915f5b8281106102ac57505050500390f35b83518552869550938101939281019260010161029d565b83548552909301926001928301920161026e565b503461019c5760c036600319011261019c5760243590600282101561019c57604435600281101561019c5760209261032c926103116111c9565b6103196111f8565b60a4359260843592606435923533611280565b60015f8051602061202083398151915255604051908152f35b503461019c57602036600319011261019c578061018091355f52600360205260405f209081549160018060a01b036001820154169160028201549060038301549060ff8083169260081c169084015460058501549060068601549260ff60078801541694600888015496600a60098a0154990154996040519b8c5260208c015260408b01526103d381610ea7565b60608a01526103e181610ea7565b608089015260a088015260c087015260e08601526103fe81610ec5565b610100850152610120840152610140830152610160820152f35b3461019c575f36600319011261019c575f546040516001600160a01b039091168152602090f35b503461019c575f36600319011261019c576104797f0000000000000000000000000000000000000000000000000000000000000000611da8565b906104a37f0000000000000000000000000000000000000000000000000000000000000000611eca565b60405190602090602083019383851067ffffffffffffffff86111761054c575091602061050185946104f397966040525f8452604051978897600f60f81b895260e0858a015260e0890190610ecf565b908782036040890152610ecf565b914660608701523060808701525f60a087015285830360c087015251918281520192915f5b82811061053557505050500390f35b835185528695509381019392810192600101610526565b604190634e487b7160e01b5f525260245ffd5b3461019c575f36600319011261019c57610577611a99565b61057f6111f8565b5f805460ff60a01b1916600160a01b1790556040513381527f62e78cea01bee320cd4e420270b5ea74000d11b0c9f74754ebdbfc544b05a25890602090a1005b3461019c57604036600319011261019c576105d8610e12565b6001600160a01b03165f9081526006602052604090208054602435919082101561019c576020916101f191610e92565b3461019c57602036600319011261019c576001600160a01b03610629610e12565b165f526007602052602060405f2054604051908152f35b3461019c575f36600319011261019c576040517f00000000000000000000000000000000000000000000000000000000000000006001600160a01b03168152602090f35b503461019c57602036600319011261019c578035906106a16111c9565b5f82815260036020526040902060018101549091906001600160a01b0316330361073f5750600701600381546106ed60ff82166106dd81610ec5565b801590811561072b575b50611040565b60ff19161790557f5152abf959f6564662358c2e52b702259b78bac5ee7842a0f01937e670efcc7d5f80a260015f8051602061202083398151915255005b6002915061073881610ec5565b145f6106e7565b60649060206040519162461bcd60e51b8352820152600f60248201526e2737ba1037b93232b91037bbb732b960891b6044820152fd5b3461019c575f36600319011261019c5761078d611a99565b5f80546001600160a01b0319811682556001600160a01b03167f8be0079c531659141344cd1fd0a4f28419497f9722a3daafe3b4186f6b6457e08280a3005b503461019c57602036600319011261019c5761021d604091356110a3565b3461019c575f36600319011261019c57602060ff5f5460a01c166040519015158152f35b503461019c57602036600319011261019c57610180905f61016060405161083481610f0d565b8281528260208201528260408201528260608201528260808201528260a08201528260c08201528260e0820152826101008201528261012082015282610140820152015280355f526003602052600a60405f206040519261089484610f0d565b8154845260018201546001600160a01b0316602085015260028201546040850152600382015460ff908082166108c981610ea7565b606087015260081c166108db81610ea7565b608085015281015460a0840152600581015460c0840152600681015460e084015260ff60078201541661090d81610ec5565b610100840152600881015461012084015260098101546101408401520154610160820152610160604051918051835260018060a01b03602082015116602084015260408101516040840152606081015161096681610ea7565b6060840152608081015161097981610ea7565b608084015260a081015160a084015260c081015160c084015260e081015160e08401526101008101516109ab81610ec5565b6101008401526101208101516101208401526101408101516101408401520151610160820152f35b3461019c576109e136610e56565b905f52600560205260405f20805482101561019c576020916101f191610e92565b503461019c575f36600319011261019c57610a1b611a99565b5f549060ff8260a01c1615610a62575060ff60a01b19165f556040513381527f5db9ee0a495bf2e6ff9c91a7834c1ba4fdd244a5e8aa4e537bd38aeae4b073aa90602090a1005b604051638dfc202b60e01b8152fd5b503461019c57602036600319011261019c57610a9d90610a8f6111c9565b610a976111f8565b35611857565b60015f8051602061202083398151915255005b503461019c57606036600319011261019c5780359060243560443567ffffffffffffffff811161019c57610ae79036908401610e28565b9092610af16111c9565b824211610c14575083916001610bb4610bab610bbb94865f526003602052610ba560405f2098610b9d60078b019a610b3060ff8d54166106dd81610ec5565b878060a01b03978891015416998a98895f52600760205260405f2054906040519160208301937ff252a9e21c9c2088c9fdc01238b30aacab5d1888c161fdfffa4f6463d9f80c9a855260408401526060830152608082015260808152610b9581610f3e565b519020611218565b923691610f98565b90611c37565b90929192611c71565b1614610fde565b5f52600760205260405f20610bd0815461101e565b9055805460ff191660031790557f5152abf959f6564662358c2e52b702259b78bac5ee7842a0f01937e670efcc7d5f80a260015f8051602061202083398151915255005b60649060206040519162461bcd60e51b8352820152601160248201527014da59db985d1d5c9948195e1c1a5c9959607a1b6044820152fd5b503461019c576101008060031936011261019c57610c68610e12565b602435604435600281101561019c5760643591600283101561019c576084359360a4359560c4359760e4359167ffffffffffffffff9283811161019c57877f0c70f0e84480e9e9780f52454a0f57bd0a3ce2140fe831c248473d908a6304db8860ff968e8a8f978f988c99610ce18c8e9b369101610e28565b9a9099610cec6111c9565b610cf46111f8565b60018060a01b03809d169e8f998a5f52600760205260405f205497610d1882610ea7565b610d2184610ea7565b6040519b60208d019d8e5260408d015260608c01521660808a01521660a088015260c087015260e08601528401526101209081840152825261014082019082821090821117610dff5793610ba5610d8b9694610b9d610bb495610bab958c99604052519020611218565b88158015610df5575b15610dc157602061032c8a8a8a8a8a8a8a8a5f526007895260405f20610dba815461101e565b9055611280565b60649060206040519162461bcd60e51b8352820152600d60248201526c13dc99195c88195e1c1a5c9959609a1b6044820152fd5b5088421115610d94565b604187634e487b7160e01b5f525260245ffd5b600435906001600160a01b038216820361019c57565b9181601f8401121561019c5782359167ffffffffffffffff831161019c576020838186019501011161019c57565b604090600319011261019c576004359060243590565b805415610e7e575f5260205f20905f90565b634e487b7160e01b5f52603260045260245ffd5b8054821015610e7e575f5260205f2001905f90565b60021115610eb157565b634e487b7160e01b5f52602160045260245ffd5b60041115610eb157565b91908251928382525f5b848110610ef9575050825f602080949584010152601f8019910116010190565b602081830181015184830182015201610ed9565b610180810190811067ffffffffffffffff821117610f2a57604052565b634e487b7160e01b5f52604160045260245ffd5b60a0810190811067ffffffffffffffff821117610f2a57604052565b6040810190811067ffffffffffffffff821117610f2a57604052565b90601f8019910116810190811067ffffffffffffffff821117610f2a57604052565b92919267ffffffffffffffff8211610f2a5760405191610fc2601f8201601f191660200184610f76565b82948184528183011161019c578281602093845f960137010152565b15610fe557565b60405162461bcd60e51b8152602060048201526011602482015270496e76616c6964207369676e617475726560781b6044820152606490fd5b5f19811461102c5760010190565b634e487b7160e01b5f52601160045260245ffd5b1561104757565b60405162461bcd60e51b815260206004820152600f60248201526e4e6f742063616e63656c6c61626c6560881b6044820152606490fd5b9061108881610ec5565b60ff80198354169116179055565b9190820391821161102c57565b5f915f915f526005602060056020526040805f20915f928054935b8481106110cd57505050505050565b6110d78183610e92565b9054600391821b1c5f528352835f206110ef81611ac4565b1580611128575b61110357506001016110be565b9598505050505050611125919250600660048201549482015491015490611096565b90565b5061113281611af4565b156110f6565b5f915f915f526004602060046020526040805f20915f928054935b84811061116257505050505050565b61116c8183610e92565b9054600391821b1c5f528352835f2061118481611ac4565b15806111b9575b6111985750600101611153565b98505050505050611125919250830154926006600582015491015490611096565b506111c381611af4565b1561118b565b5f8051602061202083398151915260028154146111e65760029055565b604051633ee5aeb560e01b8152600490fd5b60ff5f5460a01c1661120657565b60405163d93c066560e01b8152600490fd5b604290611223611b0c565b906040519161190160f01b8352600283015260228201522090565b9081549168010000000000000000831015610f2a578261126691600161127e95018155610e92565b90919082549060031b91821b915f19901b1916179055565b565b6040516390d3cc8560e01b8152600481018390529597949695919390916020816024817f00000000000000000000000000000000000000000000000000000000000000006001600160a01b03165afa90811561183f575f91611804575b50156117cd578715611791576112f281610ea7565b8015611753575b8515801561174a575b156117105761131260085461101e565b80600855604051906001600160601b03198460601b16602083015285603483015260548201524260748201526074815261134b81610f3e565b602081519101209560018060a01b0383165f52600760205260405f20546040519261137584610f0d565b8884526001600160a01b03851660208501526040840187905261139786610ea7565b8560608501526113a681610ea7565b60808401528860a08401528960c08401525f60e08401525f61010084015242610120840152610140830152610160820152855f526003602052600a61016060405f2092805184556001840160018060a01b036020830151166001600160601b0360a01b8254161790556040810151600285015560038401606082015161142b81610ea7565b61143481610ea7565b815460ff61ff00608086015161144981610ea7565b61145281610ea7565b60081b1692169061ffff19161717905560a0810151600485015560c0810151600585015560e0810151600685015561149b61010082015161149281610ec5565b6007860161107e565b61012081015160088501556101408101516009850155015191015560018060a01b0381165f5260066020526114d38560405f2061123e565b6114dc82610ea7565b8161163257825f52600460205260405f20966114f8868961123e565b87545f19810190811161102c575b801515806115de575b15611584575f1981019080821161102c5761157a8261153161157f948d610e92565b90549060031b1c908c6115636115478683610e92565b90549060031b1c61126661155b8885610e92565b959094610e92565b919082549060031b91821b915f19901b1916179055565b611cfc565b611506565b50859750606061127e96927ffd63681c6c4dc016745d940a691526c74b06ecc5847f0f950f22406040a08a98928697995b604051966115c281610ea7565b8752602087015260408601526001600160a01b031693a4611857565b506115e9818a610e92565b90549060031b1c5f526003602052600460405f200154815f1981011161102c576116165f1983018b610e92565b90549060031b1c5f526003602052600460405f2001541061150f565b825f52600560205260405f2096611649868961123e565b87545f19810190811161102c575b801515806116bc575b15611687575f1981019080821161102c5761157a82611531611682948d610e92565b611657565b50859750606061127e96927ffd63681c6c4dc016745d940a691526c74b06ecc5847f0f950f22406040a08a98928697996115b5565b506116c7818a610e92565b90549060031b1c5f526003602052600460405f200154815f1981011161102c576116f45f1983018b610e92565b90549060031b1c5f526003602052600460405f20015411611660565b60405162461bcd60e51b8152602060048201526012602482015271115e1c1a5c9e481a5b881d1a19481c185cdd60721b6044820152606490fd5b50428611611302565b866112f95760405162461bcd60e51b815260206004820152601160248201527005072696365206d757374206265203e203607c1b6044820152606490fd5b60405162461bcd60e51b815260206004820152601460248201527305175616e74697479206d757374206265203e20360641b6044820152606490fd5b60405162461bcd60e51b815260206004820152600f60248201526e50616972206e6f742061637469766560881b6044820152606490fd5b90506020813d602011611837575b8161181f60209383610f76565b8101031261019c5751801515810361019c575f6112dd565b3d9150611812565b6040513d5f823e3d90fd5b9190820180921161102c57565b5f52600460209160048352604090815f209260059260058652805f20955b8554151580611a8f575b15611a865761188d86610e6c565b9054600391821b1c9061189f89610e6c565b905490821b1c90825f528352835f20815f52845f20926118be82611ac4565b8015611a77575b611a6a576118d284611ac4565b8015611a5b575b611a4e57868201549187850154809310611a40578985949388936119778484879601948554956006916119398c611929858701936119198554809d611096565b92019586549f019e8f5490611096565b80821015611a375750809961184a565b8155611946888d5461184a565b8c5554905403611a2f576001995b61196360078094019b8c61107e565b54905403611a27576001995b01988961107e565b85817f8210a6a2b6ac7ea18af774c4744c87bc7f8043ca26ed07f59ca3aafab5c45bfe868c87825191888352820152a38351838152828a8201527fb38583f2adb435cac858db9d3e8d3ca952ccb32307e2f3d0053b415d2d293481958691a2825191825287820152a260ff80915416916119f083610ec5565b6001809314611a19575b5416611a0581610ec5565b14611a10575b611875565b611a0b87611d08565b611a2289611d08565b6119fa565b60029961196f565b600299611954565b9050809961184a565b505050505050505092505050565b50505050611a0b87611d08565b50611a6584611af4565b6118d9565b50505050611a0b86611d08565b50611a8182611af4565b6118c5565b50505092505050565b508654151561187f565b5f546001600160a01b03163303611aac57565b60405163118cdaa760e01b8152336004820152602490fd5b6007015460ff16611ad481610ec5565b60018114908115611ae3575090565b60039150611af081610ec5565b1490565b600a01548015159081611b05575090565b9050421190565b307f00000000000000000000000000000000000000000000000000000000000000006001600160a01b03161480611c0e575b15611b67577f000000000000000000000000000000000000000000000000000000000000000090565b60405160208101907f8b73c3c69bb8fe3d512ecc4cf759cc79239f7b179b0ffacaa9a75d522b39400f82527f000000000000000000000000000000000000000000000000000000000000000060408201527f000000000000000000000000000000000000000000000000000000000000000060608201524660808201523060a082015260a0815260c0810181811067ffffffffffffffff821117610f2a5760405251902090565b507f00000000000000000000000000000000000000000000000000000000000000004614611b3e565b8151919060418303611c6757611c609250602082015190606060408401519301515f1a90611f9d565b9192909190565b50505f9160029190565b611c7a81610ec5565b80611c83575050565b611c8c81610ec5565b60018103611ca65760405163f645eedf60e01b8152600490fd5b611caf81610ec5565b60028103611cd05760405163fce698f760e01b815260048101839052602490fd5b80611cdc600392610ec5565b14611ce45750565b602490604051906335e2f38360e21b82526004820152fd5b801561102c575f190190565b905f5b82545f19810190811161102c57811015611d6957600181019081811161102c57611d63611d3a60019386610e92565b9054611d468488610e92565b91909260031b1c9082549060031b91821b915f19901b1916179055565b01611d0b565b50908054908115611d94575f1991820191611d848383610e92565b909182549160031b1b1916905555565b634e487b7160e01b5f52603160045260245ffd5b60ff8114611de65760ff811690601f8211611dd45760405191611dca83610f5a565b8252602082015290565b604051632cd44ac360e21b8152600490fd5b506040515f60018054918260011c60018416928315611ec0575b6020948583108514611eac578287528694908115611e8c5750600114611e2f575b505061112592500382610f76565b9093915060015f527fb10e2d527612073b26eecdfd717e6a320cf44b4afac2b0732d9fcbe2b7fa0cf6935f915b818310611e7457505061112593508201015f80611e21565b85548784018501529485019486945091830191611e5c565b91505061112594925060ff191682840152151560051b8201015f80611e21565b634e487b7160e01b5f52602260045260245ffd5b90607f1690611e00565b60ff8114611eec5760ff811690601f8211611dd45760405191611dca83610f5a565b506040515f600254906001908260011c60018416928315611f93575b6020948583108514611eac578287528694908115611e8c5750600114611f3657505061112592500382610f76565b9093915060025f527f405787fa12a823e0f2b7631cc41b3ba8828b3321ca811111fa75cd3aa3bb5ace935f915b818310611f7b57505061112593508201015f80611e21565b85548784018501529485019486945091830191611f63565b90607f1690611f08565b91907f7fffffffffffffffffffffffffffffff5d576e7357a4501ddfe92f46681b20a08411612014579160209360809260ff5f9560405194855216868401526040830152606082015282805260015afa1561183f575f516001600160a01b0381161561200a57905f905f90565b505f906001905f90565b5050505f916003919056fe9b779b17422d0df92223018b32b4d1fa46e071723d6817e2486d003becc55f00a26469706673582212203fb709fd05b402d01e967309c713b05cff4836887457f628f3955112bff52ba364736f6c63430008180033",
  "linkReferences": {},
  "deployedLinkReferences": {}
}