{
  "_format": "hh-sol-artifact-1",
  "contractName": "Settlement",
  "sourceName": "contracts/Settlement.sol",
  "abi": [
    {
      "inputs": [
        {
          "internalType": "address",
          "name": "_feeRecipient",
          "type": "address"
        }
      ],
      "stateMutability": "nonpayable",
      "type": "constructor"
    },
    {
      "inputs": [],
      "name": "EnforcedPause",
      "type": "error"
    },
    {
      "inputs": [],
      "name": "ExpectedPause",
      "type": "error"
    },
    {
      "inputs": [
        {
          "internalType": "address",
          "name": "owner",
          "type": "address"
        }
      ],
      "name": "OwnableInvalidOwner",
      "type": "error"
    },
    {
      "inputs": [
        {
          "internalType": "address",
          "name": "account",
          "type": "address"
        }
      ],
      "name": "OwnableUnauthorizedAccount",
      "type": "error"
    },
    {
      "inputs": [],
      "name": "ReentrancyGuardReentrantCall",
      "type": "error"
    },
    {
      "inputs": [
        {
          "internalType": "address",
          "name": "token",
          "type": "address"
        }
      ],
      "name": "SafeERC20FailedOperation",
      "type": "error"
    },
    {
      "anonymous": false,
      "inputs": [
        {
          "indexed": true,
          "internalType": "address",
          "name": "trader",
          "type": "address"
        },
        {
          "indexed": true,
          "internalType": "address",
          "name": "token",
          "type": "address"
        },
        {
          "indexed": false,
          "internalType": "uint256",
          "name": "amount",
          "type": "uint256"
        }
      ],
      "name": "Deposited",
      "type": "event"
    },
    {
      "anonymous": false,
      "inputs": [
        {
          "indexed": false,
          "internalType": "address",
          "name": "newRecipient",
          "type": "address"
        }
      ],
      "name": "FeeRecipientUpdated",
      "type": "event"
    },
    {
      "anonymous": false,
      "inputs": [
        {
          "indexed": false,
          "internalType": "uint256",
          "name": "newFeeBps",
          "type": "uint256"
        }
      ],
      "name": "FeeUpdated",
      "type": "event"
    },
    {
      "anonymous": false,
      "inputs": [
        {
          "indexed": true,
          "internalType": "address",
          "name": "trader",
          "type": "address"
        },
        {
          "indexed": true,
          "internalType": "address",
          "name": "token",
          "type": "address"
        },
        {
          "indexed": false,
          "internalType": "uint256",
          "name": "amount",
          "type": "uint256"
        }
      ],
      "name": "FundsReleased",
      "type": "event"
    },
    {
      "anonymous": false,
      "inputs": [
        {
          "indexed": true,
          "internalType": "address",
          "name": "previousOwner",
          "type": "address"
        },
        {
          "indexed": true,
          "internalType": "address",
          "name": "newOwner",
          "type": "address"
        }
      ],
      "name": "OwnershipTransferred",
      "type": "event"
    },
    {
      "anonymous": false,
      "inputs": [
        {
          "indexed": false,
          "internalType": "address",
          "name": "account",
          "type": "address"
        }
      ],
      "name": "Paused",
      "type": "event"
    },
    {
      "anonymous": false,
      "inputs": [
        {
          "indexed": true,
          "internalType": "address",
          "name": "buyer",
          "type": "address"
        },
        {
          "indexed": true,
          "internalType": "address",
          "name": "seller",
          "type": "address"
        },
        {
          "indexed": true,
          "internalType": "address",
          "name": "baseToken",
          "type": "address"
        },
        {
          "indexed": false,
          "internalType": "address",
          "name": "quoteToken",
          "type": "address"
        },
        {
          "indexed": false,
          "internalType": "uint256",
          "name": "quantity",
          "type": "uint256"
        },
        {
          "indexed": false,
          "internalType": "uint256",
          "name": "price",
          "type": "uint256"
        },
        {
          "indexed": false,
          "internalType": "uint256",
          "name": "fee",
          "type": "uint256"
        }
      ],
      "name": "Settled",
      "type": "event"
    },
    {
      "anonymous": false,
      "inputs": [
        {
          "indexed": false,
          "internalType": "address",
          "name": "account",
          "type": "address"
        }
      ],
      "name": "Unpaused",
      "type": "event"
    },
    {
      "anonymous": false,
      "inputs": [
        {
          "indexed": true,
          "internalType": "address",
          "name": "trader",
          "type": "address"
        },
        {
          "indexed": true,
          "internalType": "address",
          "name": "token",
          "type": "address"
        },
        {
          "indexed": false,
          "internalType": "uint256",
          "name": "amount",
          "type": "uint256"
        }
      ],
      "name": "Withdrawn",
      "type": "event"
    },
    {
      "inputs": [],
      "name": "FEE_DENOMINATOR",
      "outputs": [
        {
          "internalType": "uint256",
          "name": "",
          "type": "uint256"
        }
      ],
      "stateMutability": "view",
      "type": "function"
    },
    {
      "inputs": [
        {
          "internalType": "address",
          "name": "",
          "type": "address"
        },
        {
          "internalType": "address",
          "name": "",
          "type": "address"
        }
      ],
      "name": "balances",
      "outputs": [
        {
          "internalType": "uint256",
          "name": "",
          "type": "uint256"
        }
      ],
      "stateMutability": "view",
      "type": "function"
    },
    {
      "inputs": [
        {
          "internalType": "address",
          "name": "token",
          "type": "address"
        },
        {
          "internalType": "uint256",
          "name": "amount",
          "type": "uint256"
        }
      ],
      "name": "deposit",
      "outputs": [],
      "stateMutability": "nonpayable",
      "type": "function"
    },
    {
      "inputs": [],
      "name": "feeBps",
      "outputs": [
        {
          "internalType": "uint256",
          "name": "",
          "type": "uint256"
        }
      ],
      "stateMutability": "view",
      "type": "function"
    },
    {
      "inputs": [],
      "name": "feeRecipient",
      "outputs": [
        {
          "internalType": "address",
          "name": "",
          "type": "address"
        }
      ],
      "stateMutability": "view",
      "type": "function"
    },
    {
      "inputs": [
        {
          "internalType": "address",
          "name": "trader",
          "type": "address"
        },
        {
          "internalType": "address",
          "name": "token",
          "type": "address"
        }
      ],
      "name": "getBalance",
      "outputs": [
        {
          "internalType": "uint256",
          "name": "",
          "type": "uint256"
        }
      ],
      "stateMutability": "view",
      "type": "function"
    },
    {
      "inputs": [],
      "name": "owner",
      "outputs": [
        {
          "internalType": "address",
          "name": "",
          "type": "address"
        }
      ],
      "stateMutability": "view",
      "type": "function"
    },
    {
      "inputs": [],
      "name": "pause",
      "outputs": [],
      "stateMutability": "nonpayable",
      "type": "function"
    },
    {
      "inputs": [],
      "name": "paused",
      "outputs": [
        {
          "internalType": "bool",
          "name": "",
          "type": "bool"
        }
      ],
      "stateMutability": "view",
      "type": "function"
    },
    {
      "inputs": [
        {
          "internalType": "address",
          "name": "trader",
          "type": "address"
        },
        {
          "internalType": "address",
          "name": "token",
          "type": "address"
        }
      ],
      "name": "releaseFunds",
      "outputs": [],
      "stateMutability": "nonpayable",
      "type": "function"
    },
    {
      "inputs": [],
      "name": "renounceOwnership",
      "outputs": [],
      "stateMutability": "nonpayable",
      "type": "function"
    },
    {
      "inputs": [
        {
          "internalType": "uint256",
          "name": "_feeBps",
          "type": "uint256"
        }
      ],
      "name": "setFeeBps",
      "outputs": [],
      "stateMutability": "nonpayable",
      "type": "function"
    },
    {
      "inputs": [
        {
          "internalType": "address",
          "name": "_feeRecipient",
          "type": "address"
        }
      ],
      "name": "setFeeRecipient",
      "outputs": [],
      "stateMutability": "nonpayable",
      "type": "function"
    },
    {
      "inputs": [
        {
          "internalType": "address",
          "name": "buyer",
          "type": "address"
        },
        {
          "internalType": "address",
          "name": "seller",
          "type": "address"
        },
        {
          "internalType": "address",
          "name": "baseToken",
          "type": "address"
        },
        {
          "internalType": "address",
          "name": "quoteToken",
          "type": "address"
        },
        {
          "internalType": "uint256",
          "name": "quantity",
          "type": "uint256"
        },
        {
          "internalType": "uint256",
          "name": "price",
          "type": "uint256"
        },
        {
          "internalType": "uint256",
          "name": "minBaseOut",
          "type": "uint256"
        },
        {
          "internalType": "uint256",
          "name": "minQuoteOut",
          "type": "uint256"
        }
      ],
      "name": "settleTrade",
      "outputs": [],
      "stateMutability": "nonpayable",
      "type": "function"
    },
    {
      "inputs": [
        {
          "internalType": "address",
          "name": "newOwner",
          "type": "address"
        }
      ],
      "name": "transferOwnership",
      "outputs": [],
      "stateMutability": "nonpayable",
      "type": "function"
    },
    {
      "inputs": [],
      "name": "unpause",
      "outputs": [],
      "stateMutability": "nonpayable",
      "type": "function"
    },
    {
      "inputs": [
        {
          "internalType": "address",
          "name": "token",
          "type": "address"
        },
        {
          "internalType": "uint256",
          "name": "amount",
          "type": "uint256"
        }
      ],
      "name": "withdraw",
      "outputs": [],
      "stateMutability": "nonpayable",
      "type": "function"
    }
  ],
  "bytecode": "0x6080346100eb57601f610d7938819003918201601f19168301916001600160401b038311848410176100ef578084926020946040528339810103126100eb57516001600160a01b0390818116908190036100eb5760017f9b779b17422d0df92223018b32b4d1fa46e071723d6817e2486d003becc55f005533156100d3575f5460018060a01b03199033828216175f55604051933391167f8be0079c531659141344cd1fd0a4f28419497f9722a3daafe3b4186f6b6457e05f80a36002541617600255601e600155610c7590816101048239f35b604051631e4fbdf760e01b81525f6004820152602490fd5b5f80fd5b634e487b7160e01b5f52604160045260245ffdfe60406080815260049081361015610014575f80fd5b5f3560e01c8063102786d9146109c757806324a9d853146109a95780633a304444146106d15780633f4ba83a14610664578063469048401461063c57806347e7ef24146104f95780635c975abb146104d4578063715018a61461047d57806372c27b62146103f45780638456cb59146103965780638da5cb5b1461036f578063c23f001f14610326578063d4fac45d14610326578063d73792a91461030a578063e74b981b1461025b578063f2fde38b146101ce5763f3fef3a3146100d7575f80fd5b346101ca57806003193601126101ca576100ef610aba565b91602435916100fc610b27565b610104610bff565b335f5260209160038352815f209460018060a01b031694855f52835283825f2054106101925750907fd1c19fbcd4551a5edfb66d43d2e337c04837afda3482b42bdf569a8fccdae5fb91335f5260038252805f20855f528252805f2061016b858254610b0d565b9055610178843387610b81565b519283523392a360015f80516020610c2083398151915255005b82606492519162461bcd60e51b83528201526014602482015273496e73756666696369656e742062616c616e636560601b6044820152fd5b5f80fd5b5090346101ca5760203660031901126101ca576101e9610aba565b906101f2610b56565b6001600160a01b039182169283156102455750505f54826bffffffffffffffffffffffff60a01b8216175f55167f8be0079c531659141344cd1fd0a4f28419497f9722a3daafe3b4186f6b6457e05f80a3005b905f6024925191631e4fbdf760e01b8352820152fd5b5090346101ca5760203660031901126101ca57610276610aba565b61027e610b56565b6001600160a01b03169081156102d3577f7a7b5a0a132f9e0581eb8527f66eae9ee89c2a3e79d4ac7e41a1f1f4d48a7fc260208385816bffffffffffffffffffffffff60a01b600254161760025551908152a1005b606490602084519162461bcd60e51b83528201526011602482015270125b9d985b1a59081c9958da5c1a595b9d607a1b6044820152fd5b50346101ca575f3660031901126101ca57602090516127108152f35b50346101ca57806003193601126101ca57602090610342610aba565b61034a610ad0565b9060018060a01b038091165f5260038452825f2091165f528252805f20549051908152f35b50346101ca575f3660031901126101ca575f5490516001600160a01b039091168152602090f35b50346101ca575f3660031901126101ca5760207f62e78cea01bee320cd4e420270b5ea74000d11b0c9f74754ebdbfc544b05a258916103d3610b56565b6103db610bff565b5f805460ff60a01b1916600160a01b17905551338152a1005b5090346101ca5760203660031901126101ca57803590610412610b56565b6064821161044a577f8c4d35e54a3f2ef1134138fd8ea3daee6a3c89e10d2665996babdf70261e2c76602083858160015551908152a1005b606490602084519162461bcd60e51b8352820152600d60248201526c4d61782066656520697320312560981b6044820152fd5b346101ca575f3660031901126101ca57610495610b56565b5f80546001600160a01b0319811682556001600160a01b03167f8be0079c531659141344cd1fd0a4f28419497f9722a3daafe3b4186f6b6457e08280a3005b50346101ca575f3660031901126101ca5760209060ff5f5460a01c1690519015158152f35b50346101ca57806003193601126101ca57610512610aba565b906024359161051f610b27565b610527610bff565b82156106045760018060a01b0316928151906323b872dd60e01b5f52338152306024528360445260205f60648180895af160015f51148116156105e5575b8284525f606052156105d1575050335f526003602052805f20835f52602052805f20610592838254610b1a565b9055519081527f8752a472e571a816aea92eec8dae9baf628e840f4929fbcc2d155e6233ff68a760203392a360015f80516020610c2083398151915255005b635274afe760e01b82528101849052602490fd5b60018115166105fb57853b15153d151616610565565b823d5f823e3d90fd5b815162461bcd60e51b815260208186015260126024820152710416d6f756e74206d757374206265203e20360741b6044820152606490fd5b50346101ca575f3660031901126101ca5760025490516001600160a01b039091168152602090f35b50346101ca575f3660031901126101ca5761067d610b56565b5f549160ff8360a01c16156106c35760ff60a01b1983165f5581513381527f5db9ee0a495bf2e6ff9c91a7834c1ba4fdd244a5e8aa4e537bd38aeae4b073aa90602090a1005b9051638dfc202b60e01b8152fd5b5090346101ca576101003660031901126101ca576106ed610aba565b6106f5610ad0565b6001600160a01b036044358181169592908690036101ca57606435928284168094036101ca5760843560a4359261072a610b27565b610732610bff565b61073a610b56565b670de0b6b3a764000061074d8584610ae6565b0461271061075d60015483610ae6565b04958061076a8884610b0d565b991698895f52600392602094848652875f208b5f52865281885f2054106109665783169b8c5f528486528d885f20905f52865286885f2054106109235760c43587106108e75760e43583106108a45750917f8e6795f05172152e227c3dcbd3dca45d09b6af16ab75ed134716e7cf279220c599979593916080999795938e8e5f52848652875f20815f528652875f20610804888254610b0d565b90558d5f52848652875f20905f528552865f20610822878254610b1a565b90558c5f52838552865f208a5f528552610840875f20918254610b0d565b90558c5f52828452855f20895f52845261085e865f20918254610b1a565b9055600254165f528152825f20865f528152825f2061087e868254610b1a565b905582519586528501528301526060820152a460015f80516020610c2083398151915255005b875162461bcd60e51b8152908101869052601760248201527f536c6970706167653a2071756f746520746f6f206c6f770000000000000000006044820152606490fd5b875162461bcd60e51b81529081018690526016602482015275536c6970706167653a206261736520746f6f206c6f7760501b6044820152606490fd5b875162461bcd60e51b8152908101869052601860248201527f53656c6c657220696e73756666696369656e74206261736500000000000000006044820152606490fd5b875162461bcd60e51b8152808e01879052601860248201527f427579657220696e73756666696369656e742071756f746500000000000000006044820152606490fd5b50346101ca575f3660031901126101ca576020906001549051908152f35b50346101ca57806003193601126101ca576109e0610aba565b906109e9610ad0565b926109f2610b27565b6109fa610b56565b60018060a01b039182841693845f5260209360038552825f20961695865f528452815f2054928315610a82575090610a6a837feed10c470424824e4a4309075162f10b9989088b23fbed2349698cedd44493fb959493875f5260038652835f20895f5286525f8481205588610b81565b51908152a360015f80516020610c2083398151915255005b825162461bcd60e51b815290810185905260126024820152714e6f7468696e6720746f2072656c6561736560701b6044820152606490fd5b600435906001600160a01b03821682036101ca57565b602435906001600160a01b03821682036101ca57565b81810292918115918404141715610af957565b634e487b7160e01b5f52601160045260245ffd5b91908203918211610af957565b91908201809211610af957565b5f80516020610c208339815191526002815414610b445760029055565b604051633ee5aeb560e01b8152600490fd5b5f546001600160a01b03163303610b6957565b60405163118cdaa760e01b8152336004820152602490fd5b60405163a9059cbb60e01b5f9081526001600160a01b039384166004526024949094529260209060448180855af160015f5114811615610be0575b8360405215610bca57505050565b635274afe760e01b835216600482015260249150fd5b6001811516610bf657813b15153d151616610bbc565b833d5f823e3d90fd5b60ff5f5460a01c16610c0d57565b60405163d93c066560e01b8152600490fdfe9b779b17422d0df92223018b32b4d1fa46e071723d6817e2486d003becc55f00a26469706673582212203cd25e6a85ecd480710a3752788078af25cc56f36b72361a0eefff3b6d760ee764736f6c63430008180033",
  "linkReferences": {},
  "deployedLinkReferences": {}
}